:020000040800F2
:10000000600400209D010008F70B0008A30B000806
:10001000F50B0008E5010008470E0008000000008D
:100020000000000000000000000000001B0C0008A1
:10003000E701000800000000190C00081D0C000872
:10004000B7010008B7010008B7010008B7010008B0
:10005000B7010008B7010008B7010008B7010008A0
:10006000B7010008B7010008B7010008B701000890
:10007000B7010008B7010008B7010008B701000880
:10008000B7010008B7010008B7010008B701000870
:10009000B7010008B7010008B7010008B701000860
:1000A000B7010008B7010008B7010008B701000850
:1000B000B7010008B7010008B7010008B701000840
:1000C000B7010008B7010008B7010008B701000830
:1000D000B7010008B7010008B7010008B701000820
:1000E000B7010008B7010008B7010008B701000810
:1000F000B7010008B7010008B7010008B701000800
:10010000B7010008B7010008B7010008B7010008EF
:10011000B7010008B7010008B7010008B7010008DF
:10012000B7010008B7010008B7010008B7010008CF
:10013000B7010008B7010008B7010008B7010008BF
:10014000B7010008B7010008B7010008B7010008AF
:10015000B7010008B7010008B7010008B70100089F
:10016000B7010008B7010008B7010008B70100088F
:10017000B7010008B7010008B7010008000000003F
:10018000B7010008B7010008DFF80CD000F018F83C
:1001900000480047690E00086004002006488047B8
:1001A00006480047FEE7FEE7FEE7FEE7FEE7FEE75C
:1001B000FEE7FEE7FEE7FEE7C90C0008890100083C
:1001C000064C074D06E0E06840F0010394E80700A4
:1001D00098471034AC42F6D3FFF7DAFF040F00085B
:1001E000240F0008FEE770472DE9F84FDFF87CB1D7
:1001F00000224FF001084FF0030A4FF00F090BF1F6
:10020000040E00BF0B6808FA02F42340A3426ED12B
:100210004D68022D01D0122D0ED1D50800EB850CB2
:10022000DCF820505607F70E09FA07F6B5430E69B9
:10023000BE402E43CCF82060066855000F790AFABC
:1002400005FC07F0030726EA0C06AF4037430760BA
:100250004E68012E05D0022E03D0112E01D0122E91
:100260000ED18668CF6826EA0C06AF403743876018
:100270004668A6430C79C4F30014944034434460A8
:10028000C6688C6826EA0C06AC403443C4604C68EF
:10029000E40065D5364C256845F480452560246822
:1002A00022F0030504F480440094324C2E19D6F851
:1002B000084895072F0F09FA07F5AC432E4DA842C1
:1002C00001D1002524E02D4DA84201D101251FE0D8
:1002D0002B4DA84201D102251AE02A4DA84201D196
:1002E000032515E0284DA84202D1042510E037E08F
:1002F000264DA84201D105250AE0254DA84201D18D
:10030000062505E0234DA84201D1072500E0082578
:10031000BD402543C6F80858DBF800405D464E68EE
:100320009C43F60300D51C432C60DEF80040754664
:100330004E689C43B60300D51C432C600B4D08351A
:100340002C684E689C43F60200D51C432C60074D78
:100350000C352C684E689C43B60200D51C432C60BB
:10036000521C102AFFF44EAFBDE8F88F003C01404C
:1003700044380240003001400000024000040240C6
:1003800000080240000C024000100240001402402D
:1003900000180240001C02400AB181617047090444
:1003A000FBE70000014800687047000004000020DF
:1003B00002480168491C01607047000004000020E9
:1003C0000B4810B5016841F400710160016841F407
:1003D00080610160016841F480710160032000F0D8
:1003E00069F8002000F006F800F018F8002010BDB1
:1003F000003C024010B5044607484FF47A7100688B
:10040000B0FBF1F000F0E5FA00222146501E00F0AA
:1004100031F8002010BD00000800002010B50320B6
:1004200000F048F8002211466FF00B0000F022F8AF
:10043000002211466FF00A0000F01CF8002211465D
:100440006FF0090000F016F800221146501F00F06E
:1004500011F800221146101F00F00CF8002211467E
:10046000901E00F007F80022BDE810401146501E13
:10047000AFF30080F0B40E4B1B680C46C3F30223AD
:10048000C3F10705042D00D90425191D072901D240
:10049000002300E0DB1E012606FA05F1491E21407B
:1004A00099409E40761E16403143F0BC00F0A4BB3C
:1004B0000CED00E0064900F0070208684FF6FF0364
:1004C000184040EA0220034A1043086070470000C9
:1004D0000CED00E00000FA052DE9F047DFF864912B
:1004E00005460F46D9F8000000F00F01F8B280462B
:1004F000B94208D2014689F80010D9F8000000F08E
:100500000F00B84274D128784F4C800705D5206879
:10051000A96820F0F000084320602878C00759D06F
:1005200049496868083901281AD002281BD00328D5
:1005300019D00968890700295ADA216821F00301D6
:1005400001432160FFF72EFF6968064641F28830BB
:10055000012911D002291DD00329824627D035E078
:1005600009688903E7E709688901E4E7FFF71AFFEB
:10057000811B514501D926E082462068C0F38100E5
:100580000128F3D126E000BFFFF70CFF811B514586
:1005900001D918E082462068C0F381000228F3D117
:1005A00018E000BFFFF7FEFE811B51450BD8206805
:1005B000C0F381000328F5D10CE000BFFFF7F2FE85
:1005C000811B514502D90320BDE8F087206810F057
:1005D0000C0FF3D1D9F80010484601F00F01B942D1
:1005E00008D980F80080006800F00F00B84201D000
:1005F0000120E9E72878400705D52068E96820F45C
:10060000E050084320602878000706D52068296953
:1006100020F4604040EAC100206000F021F8216829
:10062000F02292FAA2F201F0F001B2FA82F2D14085
:10063000064A515CC840064908600020FFF7DAFE10
:100640000020C1E7003C024008380240F40E0008D8
:1006500008000020014800687047000008000020E2
:1006600030B51948006810F00C01184812D0184C29
:1006700004290ED008290DD11349091F0A6802F078
:100680003F030A68550247F6C07204D5B4FBF3F085
:1006900003E0204630BDB0FBF3F00B68096813405F
:1006A00092FAA2F2B2FA82F2D34058434FF44032A7
:1006B00092FAA2F201F44031B2FA82F2D140491C1E
:1006C0004900B0FBF1F030BD083802400024F400CE
:1006D00040787D012DE9F84F0446DFF8CC820078A0
:1006E000A8F1040BC007ABF1040537D0D8F800100F
:1006F0004046C1F38101012908D00068C0F38100A0
:1007000002280AD1DBF80000400206D528688003E1
:1007100024D56068002878D020E0A3492079891F7B
:100720000870606868B1FFF73DFE064605E000BF4F
:10073000FFF738FE801B642868D828688003F7D547
:100740000CE0FFF72FFE064605E000BFFFF72AFE8C
:10075000801B6428F0D828688003F7D42078934E53
:1007600080074FF0010A4FF0000742D5D8F800107B
:10077000404611F00C0F08D00068C0F38100022839
:100780000AD1DBF80000400206D42868800714D59F
:10079000E068012839D110E0E068D8B1C6F800A0BF
:1007A000FFF700FE814605E0FFF7FCFDA0EB090026
:1007B0000228C1D828688007F6D52868F82292FA5E
:1007C000A2F22169B2FA82F220F0F80091400843C7
:1007D00028600EE03760FFF7E5FD814606E000BFC8
:1007E000FFF7E0FDA0EB090002280FD8286880077A
:1007F000F6D42078000728D56D486169A1B1C0F80A
:1008000000A0FFF7CFFD814608E0CAE079E000BF15
:10081000FFF7C8FDA0EB0900022872D862486C30CF
:1008200000688007F4D510E00760FFF7BBFD814644
:1008300006E000BFFFF7B6FDA0EB0900022860D874
:1008400059486C3000688007F4D42078400749D5B7
:1008500055483830016841F080510160006800F06F
:10086000805000905348016841F480710160FFF7A7
:1008700099FD814606E000BFFFF794FDA0EB09005B
:1008800002283ED84B480068C005F5D5DFF818911E
:10089000207A09F1680989F80000A06888B1FFF79B
:1008A00081FD009008E000BFFFF77CFD0099411A30
:1008B00041F2883081426CD8D9F800008007F3D526
:1008C00010E0FFF76FFD009008E000BFFFF76AFD42
:1008D0000099411A41F2883081425AD8D9F8000073
:1008E0008007F3D4A069E0B3D8F80010C1F3810108
:1008F000022956D00228376604D0FFF753FD04467C
:100900004AE046E0FFF74EFD074604E0FFF74AFDE8
:10091000C01B02283DD828688001F7D4D4E907011C
:10092000084347F6C07292FAA2F2616AB2FA82F202
:100930009140A26A4FF0FF3303EB52024FF4403371
:1009400093FAA3F3B3FA83F39A40114308434FF0A9
:10095000706292FAA2F2E16AB2FA82F2914008431E
:1009600000E01CE0CBF80000C6F860A0FFF71AFD1D
:10097000044604E0FFF716FD001B022809D828688A
:100980008001F7D50BE000BFFFF70CFD001B02282C
:1009900002D90320BDE8F88F28688001F4D4002034
:1009A000F8E70120F6E7000008380240000047425F
:1009B000800E4742007000404FF0E0210428086993
:1009C00003D020F004000861704740F00400FAE70B
:1009D000704710B5401EB0F1807F01D3012010BDDB
:1009E0004FF0E02460610F21601700F005F900204E
:1009F000A06107202061002010BD10B5FFF7E8FFBF
:100A000010BD30B590F83820012A20D0012280F89E
:100A10003820022380F8393003685C6824F07004C1
:100A20005C6003685C680D682C435C6003689C68CC
:100A300024F080049C6003689C6849680C439C60B7
:100A400080F83920002180F83810084630BD022097
:100A500030BD10B5040003D094F8390010B107E0A0
:100A6000012010BD002084F83800204600F00CF86A
:100A7000022084F83900211D206800F04FF9012080
:100A800084F83900002010BD08B500680649884286
:100A900008D10648016841F001010160006800F0DA
:100AA0000100009008BD00000000014044380240F1
:100AB00070B5044690F83800012817D0012584F855
:100AC0003850022084F839002068826822F07702CA
:100AD00022F47F4282600868502837D00DDC20283D
:100AE00059D005DC88B3102841D151E0022070BDF7
:100AF000302853D040283AD13FE060282ED07028CB
:100B00000BD0B0F5805F03D0B0F5005F2FD110E0BF
:100B10002068816821F0070115E0CB68D1E9012147
:100B2000206800F05BF92168886840F077008860F1
:100B30001DE0CB68D1E90121206800F04FF9206861
:100B4000816841F48041816011E01EE0CA68496813
:100B5000206800F055F95021206806E0CA6849680D
:100B6000206800F05EF96021206800F041F984F807
:100B70003950002084F8380070BDCA684968206880
:100B800000F03EF940212068EFE700212068ECE703
:100B900010212068E9E720212068E6E7302120685D
:100BA000E3E7FEE710B5124886B010490024C0E91B
:100BB00000148460C46004614461FFF74AFF00B11F
:100BC000FEE74FF48050009069460948FFF770FF38
:100BD00000B1FEE7049404A905480594FFF711FF4E
:100BE000002800D0FEE706B010BD00000000014064
:100BF0000C000020FEE770470907090E002806DAFE
:100C000000F00F0000F1E02080F8141D704700F1A3
:100C1000E02080F8001470477047704710B5FFF768
:100C2000C7FBBDE81040FFF7E8BE000030B5244820
:100C300093B00024016841F080510160006800F029
:100C4000805011901F48016841F4804101600068A4
:100C5000022500F4804011900120039010200490A0
:100C6000009506950820CDE907404820CDE9090503
:100C700004200B906846FFF72DFD00B1FEE70F2022
:100C8000CDE90C054FF48050CDE90E4002210CA8AF
:100C90001094FFF721FC00B1FEE7FFF7DBFC4FF4F7
:100CA0007A71B0FBF1F0FFF794FE0420FFF784FEA9
:100CB00000221146501EFFF7DDFB13B030BD0000CF
:100CC00040380240007000401048016841F4700153
:100CD00001600F48016841F0010101600C4A0021E8
:100CE0000832116002680B4B1A400260031D0A4A69
:100CF0001A60026822F48022026005480C3001600C
:100D000002495806803908607047000088ED00E00D
:100D100000380240FFFFF6FE10300024F0B50268F4
:100D2000234B244D244E254F254C4FF0804C9842A8
:100D300009D0604507D0A84205D0B04203D0B842E0
:100D400001D0A04204D122F0700E4A6842EA0E029D
:100D500098421BD0604519D0A84217D0B04215D098
:100D6000B84213D0A04211D0164DA8420ED0164D55
:100D7000A8420BD0154DA84208D0154DA84205D069
:100D8000144DA84202D0144DA84203D122F440755C
:100D9000CA682A4302608A68C2620A68826298420C
:100DA00001D0A04201D10969016301214161F0BD77
:100DB000000001400004004000080040000C00401A
:100DC000000401400040014000440140004801404F
:100DD00000180040001C00400020004010B584684E
:100DE00042EA032224F47F440A432243826010BD76
:100DF000826822F070020A4342F007018160704766
:100E000010B5036A046A24F001040462846924F0C2
:100E1000F00444EA021423F00A020A4384610262E5
:100E200010BD10B5036A23F0100303628369046ADE
:100E300023F4704343EA023224F0A00343EA011191
:100E40008261016210BDFEE702E008C8121F08C1FE
:100E5000002AFAD170477047002001E001C1121F3B
:100E6000002AFBD17047000008B5FFF7A9FAFFF789
:100E7000DDFE1C480024016841F08001016001682A
:100E800001F080010091016841F0010101600168F9
:100E900001F001010091016841F01001016000685A
:100EA00000F010000090FFF77DFE0F4801210F4D6C
:100EB0004160602101600221C0E9024101462846EB
:100EC000FFF792F90A4C012220212846FFF764FA25
:100ED000002240212846FFF75FFA2068401C20606E
:100EE000F1E70000303802404800002000100240C6
:100EF00000000020000000000102030401020304BE
:100F000006070809240F0008000000200C0000005C
:100F1000480E0008300F00080C00002054040000A8
:100F2000580E000800000000000000000024F4003B
:040000050800018965
:00000001FF
